:020000040000FA
:100000000C9462000C948A000C948A000C948A0070
:100010000C948A000C948A000C948A000C948A0038
:100020000C948A000C948A000C948A000C948A0028
:100030000C948A000C948A000C948A000C948A0018
:100040000C9429030C948A000C94F7020C94D102AE
:100050000C948A000C948A000C948A000C948A00F8
:100060000C948A000C948A000000000023002600F3
:10007000290000000008000201000003040700003E
:1000800000000000000000000000250028002B00F8
:1000900000000000240027002A00040404040404D3
:1000A0000404020202020202030303030303010227
:1000B00004081020408001020408102001020408F6
:1000C0001020450511241FBECFEFD8E0DEBFCDBF05
:1000D00011E0A0E0B1E0ECECFEE002C005900D9272
:1000E000A038B107D9F722E0A0E8B1E001C01D9225
:1000F000A632B207E1F710E0C2E6D0E004C02197D3
:10010000FE010E945E07C136D107C9F70E94730342
:100110000C9464070C94000090E0FC01E255FF4F42
:10012000249186569F4FFC018491882399F090E09A
:10013000880F991FFC01E057FF4FA591B491FC0176
:10014000EA57FF4F859194918FB7F894EC91E22B89
:10015000EC938FBF0895AF92BF92CF92DF92EF9250
:10016000FF920F931F93CF93DF936C017B018B0161
:10017000040F151FEB015E01AE18BF08C017D107B1
:1001800059F06991D601ED91FC910190F081E02D3B
:10019000C6010995892B79F7C501DF91CF911F9190
:1001A0000F91FF90EF90DF90CF90BF90AF900895A8
:1001B000FC01538D448D252F30E0842F90E0821B6D
:1001C000930B541710F0CF96089501970895FC01F2
:1001D000918D828D981761F0A28DAE0FBF2FB11D4A
:1001E0005D968C91928D9F5F9F73928F90E00895A2
:1001F0008FEF9FEF0895FC01918D828D981731F05C
:10020000828DE80FF11D858D90E008958FEF9FEFAF
:100210000895FC01918D228D892F90E0805C9F4F85
:10022000821B91098F739927089589E891E00E94B4
:10023000090121E0892B09F420E0822F089580E054
:1002400090E0892B29F00E94150181110C94000087
:100250000895FC01A48DA80FB92FB11DA35ABF4F5B
:100260002C91848D90E001968F739927848FA689B5
:10027000B7892C93A089B1898C91837080648C9309
:10028000938D848D981306C00288F389E02D8081B8
:100290008F7D80830895EF92FF920F931F93CF93EA
:1002A000DF93EC0181E0888F9B8D8C8D98131AC0B1
:1002B000E889F989808185FF15C09FB7F894EE8998
:1002C000FF896083E889F9898081837080648083F5
:1002D0009FBF81E090E0DF91CF911F910F91FF9040
:1002E000EF900895F62E0B8D10E00F5F1F4F0F73E8
:1002F0001127E02E8C8D8E110CC00FB607FCFACFA3
:10030000E889F989808185FFF5CFCE010E94290116
:10031000F1CFEB8DEC0FFD2FF11DE35AFF4FF08273
:100320009FB7F8940B8FEA89FB8980818062CFCFD9
:10033000CF93DF93EC01888D8823B9F0AA89BB891C
:10034000E889F9898C9185FD03C0808186FD0DC007
:100350000FB607FCF7CF8C9185FFF2CF808185FF28
:10036000EDCFCE010E942901E9CFDF91CF91089511
:10037000833081F028F4813099F08230A9F008951B
:100380008730A9F08830C9F08430B1F480918000C2
:100390008F7D03C0809180008F77809380000895C7
:1003A00084B58F7784BD089584B58F7DFBCF809110
:1003B000B0008F778093B00008958091B0008F7D5A
:1003C000F9CF1F93CF93DF93282F30E0F901EE5838
:1003D000FF4F8491F901E255FF4FD491F901E656A0
:1003E000FF4FC491CC23A9F0162F81110E94B801B0
:1003F000EC2FF0E0EE0FFF1FEA57FF4FA591B491ED
:100400008FB7F894EC91111108C0D095DE23DC93DE
:100410008FBFDF91CF911F910895DE2BF8CF3FB7AB
:10042000F8948091850190918601A0918701B09107
:10043000880126B5A89B05C02F3F19F00196A11D84
:10044000B11D3FBFBA2FA92F982F8827BC01CD011E
:10045000620F711D811D911D42E0660F771F881F7D
:10046000991F4A95D1F708958F929F92AF92BF92AC
:10047000CF92DF92EF92FF924B015C010E940F023C
:100480006B017C010E940F026C197D098E099F0986
:10049000683E734081059105A8F321E0821A910816
:1004A000A108B10888EEC80E83E0D81EE11CF11C3B
:1004B00081149104A104B10429F7FF90EF90DF901B
:1004C000CF90BF90AF909F908F90089561E08BE0A8
:1004D0000E94E10160E08AE00E94E10160E08CE0BE
:1004E0000C94E101FC0101900020E9F73197AF0184
:1004F000481B590BBC0189E891E00C94AB008F922A
:100500009F92AF92BF920F931F93CF93DF93CDB77C
:10051000DEB7A1970FB6F894DEBF0FBECDBF19A20C
:10052000423008F44AE08E010F5D1F4F842E912C5B
:10053000B12CA12CA50194010E943C07E62FB90122
:10054000CA01EA30F4F4E05DD801EE938D01232B6B
:10055000242B252B79F790E080E0109719F0CD013E
:100560000E947202A1960FB6F894DEBF0FBECDBFF7
:10057000DF91CF911F910F91BF90AF909F908F907F
:100580000895E95CE1CFCF93DF930E947202EC0102
:1005900082E191E00E9472028C0F9D1FDF91CF914A
:1005A00008951F920F920FB60F9211242F933F932D
:1005B0004F935F936F937F938F939F93AF93BF936B
:1005C000EF93FF9389E891E00E942901FF91EF9159
:1005D000BF91AF919F918F917F916F915F914F915B
:1005E0003F912F910F900FBE0F901F9018951F9263
:1005F0000F920FB60F9211242F938F939F93EF9327
:10060000FF93E0919901F0919A018081E0919F011F
:10061000F091A00182FD1BC090818091A2018F5FAB
:100620008F732091A301821741F0E091A201F0E0C5
:10063000E757FE4F958F8093A201FF91EF919F9115
:100640008F912F910F900FBE0F901F901895808162
:10065000F4CF1F920F920FB60F9211242F933F9356
:100660008F939F93AF93BF9380918101909182016B
:10067000A0918301B09184013091800123E0230F88
:100680002D3758F50196A11DB11D2093800180934F
:10069000810190938201A0938301B09384018091A2
:1006A000850190918601A0918701B0918801019602
:1006B000A11DB11D8093850190938601A0938701B0
:1006C000B0938801BF91AF919F918F913F912F91EE
:1006D0000F900FBE0F901F90189526E8230F0296DB
:1006E000A11DB11DD2CF789484B5826084BD84B53C
:1006F000816084BD85B5826085BD85B5816085BD1D
:1007000080916E00816080936E00109281008091D4
:10071000810082608093810080918100816080935C
:100720008100809180008160809380008091B10081
:1007300084608093B1008091B00081608093B000AC
:1007400080917A00846080937A0080917A00826040
:1007500080937A0080917A00816080937A00809102
:100760007A00806880937A001092C10085E00E9430
:100770008C008BE00E948C008AE00E948C008CE050
:100780000E948C00E0919901F0919A0182E08083AF
:10079000E0919501F09196011082E0919701F0911E
:1007A00098018FEC80831092A101E0919D01F0915E
:1007B0009E0186E08083E0919B01F0919C01808105
:1007C00080618083E0919B01F0919C018081886031
:1007D0008083E0919B01F0919C01808180688083FF
:1007E000E0919B01F0919C0180818F7D80839CEB47
:1007F000292E90E0392E08EA10E0C0E0D0E0E0E8D1
:10080000F0E08491F101F490F801E490EE2009F415
:1008100033C181110E94B801EE2DF0E0EE0FFF1FF1
:10082000E859FF4FA591B4918C91F82209F424C1A5
:1008300085E191E00E94C30260E971E080E090E010
:100840000E943402F2E4F0937C0080917A0080648C
:1008500080937A0080917A0086FDFCCF80917800A9
:1008600060917900762F682F072E000C880B990B6A
:100870000E94150620E030E04AEF5EE30E94CA06BF
:100880006B017C010E94660282E291E00E9472028A
:10089000A7019601C701B6010E943707882309F412
:1008A00059C080E391E00E9472028CE391E00E94C3
:1008B000C30264E670E080E090E00E94340220E031
:1008C00030E046E152E4C701B6010E94DF05181688
:1008D00014F120E030E040E152E4C701B6010E948B
:1008E000C5061816C4F460E08BE00E94E10161E0E7
:1008F0008AE00E94E10161E08CE00E94E1018EE368
:1009000091E00E94C30260EA7FE080E090E00E94F4
:1009100034020E94660220E030E046E152E4C70162
:10092000B6010E94C506181654F488E491E00E94AE
:10093000C30268EE73E080E090E00E9434022097EA
:1009400009F45DCF0E941501882309F458CF0E9455
:10095000000055CF46015701E894B7F82FEF3FEF5D
:100960004FE75FE7C501B4010E94370781110DC051
:100970002FEF3FEF4FE75FE7C501B4010E94DF05AE
:1009800018161CF484E391E08ECF2FEF3FEF4FE772
:100990005FE4C701B6010E94C50618161CF488E37F
:1009A00091E081CF2FEF3FEF4FE75FECC701B6013A
:1009B0000E94DF0587FDF3CF20E030E0A901C701E9
:1009C000B6010E94DF0587FF54C06DE289E891E01F
:1009D0000E944B01C701B60190582AE037ED43EA67
:1009E0005BE30E9473052B013C010E94E4054B016F
:1009F0005C010E9413069B01AC01C301B2010E947D
:100A000072052B013C014AE0C501B4010E947F023E
:100A10006EE289E891E00E944B0120E030E040E284
:100A200051E4C301B2010E94CA062B013C010E949D
:100A3000E4054B01B12CA12C4AE0C501B4010E9490
:100A40007F02C501B4010E9413069B01AC01C301E2
:100A5000B2010E94720520E030E040E251E40E94C1
:100A6000CA060E94E40590E080E04AE00E947F020E
:100A70001CCFC701B601B1CF82E791E00E94C3024B
:100A800060E971E080E090E058CFE9E8F1E013829E
:100A9000128288EE93E0A0E0B0E084839583A68381
:100AA000B78384E091E09183808385EC90E0958723
:100AB000848784EC90E09787868780EC90E0918B28
:100AC000808B81EC90E0938B828B82EC90E0958B15
:100AD000848B86EC90E0978B868B118E128E138E12
:100AE000148E08955058BB27AA270E948A050C949B
:100AF0008B060E947D0638F00E94840620F039F4AF
:100B00009F3F19F426F40C947A060EF4E095E7FB67
:100B10000C947406E92F0E949C0658F3BA176207DA
:100B200073078407950720F079F4A6F50C94BE06A8
:100B30000EF4E0950B2EBA2FA02D0B01B9019001F8
:100B40000C01CA01A0011124FF27591B99F0593F3C
:100B500050F4503E68F11A16F040A22F232F342F84
:100B60004427585FF3CF469537952795A795F040D2
:100B70005395C9F77EF41F16BA0B620B730B840BE7
:100B8000BAF09150A1F0FF0FBB1F661F771F881F9F
:100B9000C2F70EC0BA0F621F731F841F48F48795F7
:100BA00077956795B795F7959E3F08F0B0CF9395E9
:100BB000880F08F09927EE0F9795879508950E9462
:100BC000500608F481E008950E94A40688F09F571B
:100BD00098F0B92F9927B751B0F0E1F0660F771F61
:100BE000881F991F1AF0BA95C9F714C0B13091F057
:100BF0000E94BE06B1E008950C94BE06672F782FC0
:100C00008827B85F39F0B93FCCF38695779567951B
:100C1000B395D9F73EF490958095709561957F4F87
:100C20008F4F9F4F0895E89409C097FB3EF490952D
:100C30008095709561957F4F8F4F9F4F9923A9F0B5
:100C4000F92F96E9BB279395F69587957795679544
:100C5000B795F111F8CFFAF4BB0F11F460FF1BC088
:100C60006F5F7F4F8F4F9F4F16C0882311F096E91B
:100C700011C0772321F09EE8872F762F05C06623C9
:100C800071F096E8862F70E060E02AF09A95660F82
:100C9000771F881FDAF7880F9695879597F908953B
:100CA000990F0008550FAA0BE0E8FEEF161617067D
:100CB000E807F907C0F012161306E407F50798F0E5
:100CC000621B730B840B950B39F40A2661F0232BFE
:100CD000242B252B21F408950A2609F4A140A6957A
:100CE0008FEF811D811D089597F99F6780E870E05F
:100CF00060E008959FEF80EC089500240A94161692
:100D0000170618060906089500240A9412161306F9
:100D1000140605060895092E0394000C11F4882387
:100D200052F0BB0F40F4BF2B11F460FF04C06F5FA3
:100D30007F4F8F4F9F4F089557FD9058440F551F79
:100D400059F05F3F71F04795880F97FB991F61F04D
:100D50009F3F79F087950895121613061406551FC4
:100D6000F2CF4695F1DF08C0161617061806991F30
:100D7000F1CF86957105610508940895E894BB2725
:100D800066277727CB0197F908950E94500608F44B
:100D90008FEF08950E94DD060C948B060E947D065D
:100DA00038F00E94840620F0952311F00C9474060C
:100DB0000C947A0611240C94BF060E949C0670F3D2
:100DC000959FC1F3950F50E0551F629FF001729FF0
:100DD000BB27F00DB11D639FAA27F00DB11DAA1FFF
:100DE000649F6627B00DA11D661F829F2227B00D4C
:100DF000A11D621F739FB00DA11D621F839FA00DD7
:100E0000611D221F749F3327A00D611D231F849F26
:100E1000600D211D822F762F6A2F11249F5750407D
:100E20009AF0F1F088234AF0EE0FFF1FBB1F661FF8
:100E3000771F881F91505040A9F79E3F510580F0C1
:100E40000C9474060C94BF065F3FE4F3983ED4F311
:100E5000869577956795B795F795E7959F5FC1F765
:100E6000FE2B880F911D9695879597F908950E94FE
:100E70005006880B990B0895A1E21A2EAA1BBB1BE2
:100E8000FD010DC0AA1FBB1FEE1FFF1FA217B30756
:100E9000E407F50720F0A21BB30BE40BF50B661F6C
:100EA000771F881F991F1A9469F760957095809530
:100EB00090959B01AC01BD01CF010895EE0FFF1F7E
:100EC0000590F491E02D0994F894FFCF0000000004
:100ED0004B01AB00D80098010901E700FB000D0AA7
:100EE0000046616365206163636573732100746507
:100EF0006D70657261747572653A20006E616E0086
:100F0000696E66006F7666004300444F4F52204F73
:100F100050454E0074656D70657261747572652020
:100F2000697320746F6F20686967682C2074727908
:100F300020616761696E206C617465722100466191
:0C0F400063652064656E69656421000033
:107E0000112484B714BE81FFF0D085E080938100F7
:107E100082E08093C00088E18093C10086E0809377
:107E2000C20080E18093C4008EE0C9D0259A86E02C
:107E300020E33CEF91E0309385002093840096BBD3
:107E4000B09BFECF1D9AA8958150A9F7CC24DD24C4
:107E500088248394B5E0AB2EA1E19A2EF3E0BF2EE7
:107E6000A2D0813461F49FD0082FAFD0023811F036
:107E7000013811F484E001C083E08DD089C08234E0
:107E800011F484E103C0853419F485E0A6D080C0E4
:107E9000853579F488D0E82EFF2485D0082F10E0AE
:107EA000102F00270E291F29000F111F8ED06801E7
:107EB0006FC0863521F484E090D080E0DECF843638
:107EC00009F040C070D06FD0082F6DD080E0C81688
:107ED00080E7D80618F4F601B7BEE895C0E0D1E017
:107EE00062D089930C17E1F7F0E0CF16F0E7DF06D8
:107EF00018F0F601B7BEE89568D007B600FCFDCFD4
:107F0000A601A0E0B1E02C9130E011968C91119780
:107F100090E0982F8827822B932B1296FA010C0160
:107F200087BEE89511244E5F5F4FF1E0A038BF0790
:107F300051F7F601A7BEE89507B600FCFDCF97BE46
:107F4000E89526C08437B1F42ED02DD0F82E2BD052
:107F50003CD0F601EF2C8F010F5F1F4F84911BD097
:107F6000EA94F801C1F70894C11CD11CFA94CF0C13
:107F7000D11C0EC0853739F428D08EE10CD085E9AC
:107F80000AD08FE07ACF813511F488E018D01DD067
:107F900080E101D065CF982F8091C00085FFFCCF94
:107FA0009093C60008958091C00087FFFCCF809118
:107FB000C00084FD01C0A8958091C6000895E0E648
:107FC000F0E098E1908380830895EDDF803219F02E
:107FD00088E0F5DFFFCF84E1DECF1F93182FE3DFCA
:107FE0001150E9F7F2DF1F91089580E0E8DFEE27F6
:047FF000FF270994CA
:027FFE00040479
:00000001FF
